:0E00000042C0FECFFDCFFCCFCCC0FACFF9CF6F
:10000E00F8CF69C0F6CFF5CFF4CFF3CFF2CFF1CF63
:10001E00F0CFEFCFEECFEDCF286F584A0F8A886E14
:10002E00080A0C89B849989CDF1EFFCD99FEFB008B
:10003E00020408016400C80090012003F8FFFCFFD1
:10004E00FEFFFFFF0000030000000000000000FDA7
:10005E00FF0001002D4E414E00494E4600000100AA
:10006E0002005200010076015400090005005600FE
:10007E000100780160000000F894EE27ECBBF1E07F
:10008E00FBBFEBBFE5BFF8E1F1BDE1BD8DE0A2E046
:10009E00BB27ED938A95E9F780E094E0A0E6ED9317
:1000AE000197E9F7ECE6F0E085919591009761F004
:1000BE00A591B59105901590BF01F00105900D9297
:1000CE000197E1F7FB01F0CFEFE5EDBFE4E0EEBF06
:1000DE00C0E6D1E059C10A921A92FA926A937A93C3
:1000EE008A939A93AA93BA93EA93FA93EFB7EA9301
:1000FE00E1E0E915C1F5882059F4989902C0E1E0D4
:10010E008E2E9B9904C099249598689422F82AC043
:10011E00E1E0E81591F4989903C0E2E08E2E68D2E2
:10012E00999904C0F60131976F0162D29A9904C071
:10013E00F60131966F015CD215C0E2E0E81591F43C
:10014E00989902C0882454D2999905C054D23197F7
:10015E00FE93EE934DD29A9905C04DD23196FE93F1
:10016E00EE9346D209C0992039F49B9905C0E1E07F
:10017E009E2E959A689421F8E991EFBFF991E99135
:10018E00B991A9919991899179916991F990199063
:10019E00099018950A92AA93EA93FA93EFB7EA9305
:1001AE00E2B3E073E2BB2CD22ED2E0812FD2EA5D15
:1001BE00FF4F049008BA20FE03C0E2E0E51509F0F7
:1001CE0001C0C398E2B3AE2F1BD2E25CFF4FE491A5
:1001DE00EA2BE2BB5394E3E0E51508F45524E991CC
:1001EE00EFBFF991E991A99109901895FF92AA9301
:1001FE005DD3FF2400E0E89420F8EA81E03061F45A
:10020E000024C014D00414F46894F0F801D2A6E1CE
:10021E00A083D60142D11E2FAA81A13079F4A091DC
:10022E007701AA2312F46894F0F8F2D1A5E1A08325
:10023E00A0917601B091770130D11E2F1A30B8F00F
:10024E00E7D1DF01F0FE02C0E0E101C0E2E1EC9394
:10025E00DFD1BF01A12FEAE00DD3DB01EC93D8D1A2
:10026E00BF01A12FEAE014D3DB01EC930DC0D0D176
:10027E00A2E1A083CDD1DF01F0FE02C0E0E101C01A
:10028E00E2E1EC93C5D1108318D32396FF90089525
:10029E00FF92249707D320E0A3010024601470047A
:1002AE003CF4FA01E095F0953196AF01689401C0E7
:1002BE00E894F0F8FA01CAD2E887F987FA01EF70EC
:1002CE00F070EE83FF83AE81BF81EAE0CDD2BED265
:1002DE000E2F1885143688F5A12F80D13E2FA12E12
:1002EE00BB24053018F0F50131965F01F0FE05C014
:1002FE00E0E0F0E0EA19FB095F01689420F81A309B
:10030E0060F08AD1F0FE02C0E0E101C0E2E1EC93C0
:10031E0083D1E32FE295EF7009C084D1A2E1A083CF
:10032E007BD1F0FE02C0E0E101C0E2E1EC9374D1BA
:10033E00E32FEF70EC9376D10083BBD22A96FF9019
:10034E000895E1E0E915D1F423FE07C0E0917601AE
:10035E00F0917701EA15FB050CF003C0AD98E89417
:10036E0023F8A0E023FCA1E0A03019F4AC14BD04E6
:10037E000CF003C0AD9A689423F805C0992019F4C7
:10038E00AD98E89423F80895EFEFE8BBE7BBE5BB23
:10039E00E4BBE0E0E2BBEFEFE1BBE0E0E3BFE2BFD6
:1003AE00EFBDE3E0EEBDE0E0EDBDECBDE7BDE6BDCB
:1003BE00EBBDEABDE9BDE8BDE2BDE5E0E5BDE0E0CF
:1003CE00E4BDE3BDE5BFE4E4E9BFE0E0EAB9E0E89F
:1003DE00E8B9E0E0E0BFE6B9EDB9E6BFAD985AD1B5
:1003EE00E0EFEA93ADE6B1E0A5D14E2E78941ED1A2
:1003FE00EFE0E0936B0140926C01E1E04E1678F075
:10040E0000E010E019D158F41DD1A081A83221F4DA
:10041E0019D1DF0194D03F010F5F1F4FF3CF88201A
:10042E0081F5E1E04E16B0F000E010E005D190F459
:10043E0009D1A081A83221F405D1DF0180D03F017E
:10044E00E1EFF8EDE615F70511F022DF7ADF0F5F29
:10045E001F4FECCF21FE07C0E9D0E0E0E0936B0127
:10046E00E3E1F8D021F822FE0BC0E2E1E09369014E
:10047E00E0E0E0936A01EFE0E0936B01EBD022F84D
:10048E000AC0E1E0E81511F4A0E004C0E2E0E815CE
:10049E0011F4A1E0ABDEC3CFFFCFE3D0E991F99128
:1004AE0030971AF4E095F09531960895DAD01A93B4
:1004BE00F1D0E03011F4E0E08EC0E981FA8130979E
:1004CE0089F0F894A5E52CD1789410E0F894CCD06E
:1004DE00ED91A983BA83AE2F23D178941F5F183084
:1004EE00A8F304C0F894ACEC1BD17894E1E073C08F
:1004FE00B8D0DAD1AC81BD81D9DFE03011F4E0E0C3
:10050E001BC0F894AEEB0CD1789410E020E631E0ED
:10051E00F8943F932F932F5F3F4FFDD0AF91BF9134
:10052E00EC9378941F5F193098F3E0E6F1E0FA93BC
:10053E00EA93A9E06ED193D1BED12696089591D0BB
:10054E001A9392D0B3DFE03019F4E1EFF8ED43C027
:10055E008ED0A83239F4E0916401E295EF70E69501
:10056E00E3701E2FF894A4E4DBD0789480D0A031F1
:10057E0019F4A6E2B2E084D07AD0A83231F4E12F99
:10058E00A2E4B0E077D08BD17BD06ED0B1DFE0307B
:10059E0019F4E1EFF8ED1FC0F8947CD0789467D091
:1005AE00A03159F4F0916101E0E0DF01E0916001CA
:1005BE002DD0EA2BFB2B43D10EC059D0A83259F4C3
:1005CE00E12FAAE4B0E056D066D1A0916001B091BF
:1005DE006101EA23FB23188123960895AA93A9911A
:1005EE00EE27AA5012F0E05FFCCFA65FEA0F089547
:1005FE00A4E6B0E045C0A6E7B1E0ED91FD91089507
:10060E00E52DF0E00895E759FE4F0895F0E00895C6
:10061E00E02F0F5FFBDFF7CFE22F2F5FF7DFF3DF68
:10062E00DF010895E22F2F5FF1DFEDCFE2E1E093DE
:10063E006901E0936A010895E42DD801E7DFAE1752
:10064E00BF070895A9E0A09FF001A19FF00DE35907
:10065E00FE4F0895E0936C01A4ECB9E011D0E8943C
:10066E000895BA93AA930895A981BA810895FCDFDB
:10067E00AC910895CBDFEE0FFF1FEA0FFB1F08951D
:10068E00109639F080ED97E00197F1F7A895119744
:10069E00C9F70895EE2797988F9A80EC93E001970B
:1006AE00F1F78F9885E28A95F1F7879B08958BEC89
:1006BE008A95F1F7879BE1E08CE093E00197F1F7E3
:1006CE0008958F9A85E08A95F1F78F988DE18A9536
:1006DE00F1F7889487990894E79585ED8A95F1F757
:1006EE000895E8948F9A85E08A95F1F770FD8F98BA
:1006FE0083E28A95F1F7879903C070FF03C00895CE
:10070E0070FF089588EC8A95F1F78F988DE08A95A1
:10071E00F1F76894089568E0D4DF6A95E9F70895D3
:10072E007A2F68E0EE27DDDF26F477956A95D9F704
:10073E00E39508954F935F9311244427012C1124C0
:10074E00A9DFEE2301F1AF93A881EADFAF9151E06B
:10075E00501598F4B6DFE7FD08C0B3DFE7FD06C01D
:10076E003FD0892319F4152E01C0ABDF39D0892370
:10077E0070E009F071E0B5DF1EC0A3DFE7FF0BC02C
:10078E00A0DFE7FF05C0E42F5F914F9121960895FA
:10079E00689437D0EFCF95DFE7FF01C003C0501547
:1007AE0031F0152EE8942DD077279BDF04C0689486
:1007BE0028D071E096DF5395513454F282DFEE1F4C
:1007CE00EE1FE1701896EC93189743951120D9F20D
:1007DE0059E0EC911996EC9318975A95D1F7AECF44
:1007EE00E52FEA956E2FE695E695E695FF27EA0F3B
:1007FE00FB1F808191E0677019F0990F6A95FCCF0D
:10080E000895EEDF1EF09095892301C0892B808319
:10081E000895EE27AA2389F08A2F68E1A881B9816D
:10082E0098E0FD917F2F7E27779508F4E627E795D0
:10083E00F6959A95B9F78A9599F722960895EE0F3F
:10084E00FF1FEE0FFF1FEE0FFF1F0895F695E795A2
:10085E00F695E795F695E795F695E7950895EE23C7
:10086E00E1E009F0EE2708956E2F6A9FF0016B9F6D
:10087E00F00D0895002498E0AA0F001C0E1A10F433
:10088E000E0E01C0A1609A95B9F7EA2FA02D08951A
:10089E00F1DFEA2F08950590F491E02D0895A591CA
:1008AE00B49108955A934A933A932A931A930A93BA
:1008BE0008955D814C813B812A81198108810895BB
:00000001FF
