:1000000043C0FECFFDCFFCCFFBCFFACFF9CFF8CF67
:10001000F7CFBDC0F5CFF4CFF3CF6DC0F1CFF0CFA8
:10002000EFCFEECFEDCFECCFEBCFEACFE9CFE8CFFC
:10003000E7CFE6CF05F51351E14909D50141812903
:100040000F310B8BFBC3FFB92BDF7F006400C800AF
:1000500090012003F8FFFCFFFEFFFFFF03000000FC
:100060000000000000FDFF0001002D4E414E004940
:100070004E460000010016025C00090005005E000B
:100080000100180268000000F894EE27EFBBF1E0D1
:10009000F5BFE5BFF8E1A895A4B7A77FA4BFF0938B
:1000A0006000E09360008DE0A2E0BB27ED938A95AD
:1000B000E9F780E094E0A0E0B1E0ED930197E9F783
:1000C000E4E7F0E085919591009761F0A591B591F5
:1000D00005901590BF01F00105900D920197E1F791
:1000E000FB01F0CFE0E0EEBBEFEFEDBFE4E0EEBFF1
:1000F000C0E0D2E039C10A921A92FA926A937A93D6
:100100008A939A93AA93BA93EA93FA93EFB7EA93EE
:10011000992029F4309902C0E1E09E2E2AC0E1E046
:10012000E91591F4309903C0E2E09E2E69D231992D
:1001300004C0F60131976F0163D2329904C0F60111
:1001400031966F015DD215C0E2E0E91591F4309966
:1001500002C0992455D2319905C055D23197FE93EA
:10016000EE934ED2329905C04ED23196FE93EE9365
:1001700047D2E991EFBFF991E991B991A99199918C
:10018000899179916991F9901990099018950A923D
:100190001A92AA93EA93FA93EFB7EA93E0E0EBB9E5
:1001A000E52D36D237D2E08133D2EC5CFF4F04909C
:1001B00005B8F09B03C0E2E0E51509F001C02898FE
:1001C0001BB0E52DA1E033D3E129EBB95394E3E073
:1001D000E51508F45524E991EFBFF991E991A9914A
:1001E000199009901895FF92AA9360D3FF2400E01C
:1001F000F098EA81E03061F40024C014D00414F4D3
:100200006894F0F80AD2A6E1A083D6014ED11E2F41
:10021000AA81A13079F4A0911702AA2312F468945C
:10022000F0F8FBD1A5E1A083A0911602B0911702CE
:100230003CD11E2F1A30B8F0F0D1DF01F0FE02C021
:10024000E0E101C0E2E1EC93E8D1BF01A12FEAE0D7
:1002500011D3DB01EC93E1D1BF01A12FEAE018D368
:10026000DB01EC930DC0D9D1A2E1A083D6D1DF018F
:10027000F0FE02C0E0E101C0E2E1EC93CED11083D8
:100280001CD32396FF900895FF9224970BD320E070
:10029000A3010024601470043CF4FA01E095F09589
:1002A0003196AF01689401C0E894F0F8FA01CED21B
:1002B000E887F987FA01EF70F070EE83FF83AE8173
:1002C000BF81EAE0D1D2C2D20E2F1885143680F554
:1002D000A12F8CD13E2FA12EBB24053018F0F501A3
:1002E00031965F01F0FE05C0E0E0F0E0EA19FB099D
:1002F0005F01F09A1A3060F094D1F0FE02C0E0E1A4
:1003000001C0E2E1EC938DD1E32FE295EF7009C0DB
:100310008ED1A2E1A08385D1F0FE02C0E0E101C050
:10032000E2E1EC937ED1E32FEF70EC9380D1008378
:10033000C0D22A96FF900895F19B07C0E091160263
:10034000F0911702EA15FB050CF002C04398F198F2
:10035000A0E0F199A1E0A03019F4AC14BD040CF0B8
:1003600002C0439AF19A0895E0E8E0936100E0E06A
:10037000E0936100EFEFE5B9E4B9E8B9E7B9E0E08F
:10038000EBB9EFEFEAB9E0E0E4BDE5BDE6BDE7BDFE
:10039000E8BDE0938000E3E0E0938100E0E0E093DB
:1003A0008500E0938400E0938700E0938600E0936B
:1003B0008900E0938800E0938B00E0938A00E0934B
:1003C000B600E093B000E5E0E093B100E0E0E09338
:1003D000B200E093B300E093B400E0936900EDBB9A
:1003E000E0936800E0936E00E1E0E0936F00E0933B
:1003F0007000E0E0E093C100E0E8E0BFE0E0E093FF
:100400007B00E0937F00E0937A00ECBDE093BC00BA
:10041000439838D1E0EFEA93ADE0B2E083D14E2EBD
:100420007894E2E1E0930902E0930A02EFE0E093BE
:100430000B0240920C02E1E04E1678F000E010E072
:10044000FAD058F4FED0A081A83221F4FAD0DF010E
:100450007ED03F010F5F1F4FF3CF9920D1F4E1E031
:100460004E16B0F000E010E0E6D090F4EAD0A081A3
:10047000A83221F4E6D0DF016AD03F01E1EFF8EDC8
:10048000E615F70511F000DF57DF0F5F1F4FECCFC8
:100490000AC0E1E0E91511F4A0E004C0E2E0E915CA
:1004A00011F4A1E0A0DED9CFFFCFD3D0E991F9912B
:1004B00030971AF4E095F09531960895CAD01A93C2
:1004C000E1D0E03011F4E0E08EC0E981FA813097AC
:1004D00089F0F894A5E51CD1789410E0F894BCD08C
:1004E000ED91A983BA83AE2F13D178941F5F183092
:1004F000A8F304C0F894ACEC0BD17894E1E073C09D
:10050000A8D0D2D1AC81BD81D9DFE03011F4E0E0D8
:100510001BC0F894AEEBFCD0789410E020E032E001
:10052000F8943F932F932F5F3F4FEDD0AF91BF9142
:10053000EC9378941F5F193098F3E0E0F2E0FA93BF
:10054000EA93A9E05ED18BD1B6D12696089581D0E9
:100550001A9382D0B3DFE03019F4E1EFF8ED43C035
:100560007ED0A83239F4E0910402E295EF70E6956E
:10057000E3701E2FF894A4E4CBD0789470D0A0310F
:1005800019F4A6E2B2E074D06AD0A83231F4E12FB7
:10059000ACE4B0E067D083D16BD05ED0B1DFE030A7
:1005A00019F4E1EFF8ED1FC0F8946CD0789457D0AF
:1005B000A03159F4F0910102E0E0DF01E091000286
:1005C00027D0EA2BFB2B3BD10EC049D0A83259F4DF
:1005D000E12FA4E5B0E046D05ED1A0910002B09139
:1005E0000102EA23FB23188123960895AA93A99177
:1005F000EE27AA5012F0E05FFCCFA65FEA0F089545
:10060000AAEFB0E035C0A6E1B2E0ED91FD9108950A
:10061000F0E00895E75FFD4F0895E02F0F5FF8DFEA
:10062000F9CFE22F2F5FF4DFF5DFDF010895E22F2E
:100630002F5FEEDFEFCFE42DD801EADFAE17BF0763
:100640000895A9E0A09FF001A19FF00DE35FFD4F89
:100650000895BA93AA930895A981BA810895FCDFF9
:10066000AC910895D5DFEE0FFF1FEA0FFB1F089531
:10067000109639F080ED97E00197F1F7A895119762
:10068000C9F70895EE275D98559A80EC93E001979D
:10069000F1F7559885E28A95F1F74D9B08958BEC1B
:1006A0008A95F1F74D9BE1E08CE093E00197F1F73B
:1006B0000895559A85E08A95F1F755988DE18A95C8
:1006C000F1F788944D990894E79585ED8A95F1F7AF
:1006D0000895E894559A85E08A95F1F770FD55984C
:1006E00083E28A95F1F74D9903C070FF03C0089526
:1006F00070FF089588EC8A95F1F755988DE08A95FA
:10070000F1F76894089568E0D4DF6A95E9F70895F1
:100710007A2F68E0EE27DDDF26F477956A95D9F722
:10072000E39508954F935F9311244427012C1124DE
:10073000A9DFEE2301F1AF93A881EADFAF9151E089
:10074000501598F4B6DFE7FD08C0B3DFE7FD06C03B
:100750003FD0892319F4152E01C0ABDF39D089238E
:1007600070E009F071E0B5DF1EC0A3DFE7FF0BC04A
:10077000A0DFE7FF05C0E42F5F914F912196089518
:10078000689437D0EFCF95DFE7FF01C003C0501565
:1007900031F0152EE8942DD077279BDF04C06894A4
:1007A00028D071E096DF5395513454F282DFEE1F6A
:1007B000EE1FE1701896EC93189743951120D9F22B
:1007C00059E0EC911996EC9318975A95D1F7AECF62
:1007D000E52FEA956E2FE695E695E695FF27EA0F59
:1007E000FB1F808191E0677019F0990F6A95FCCF2B
:1007F0000895EEDF1EF09095892301C0892B808338
:100800000895EE27AA2389F08A2F68E1A881B9818B
:1008100098E0FD917F2F7E27779508F4E627E795EE
:10082000F6959A95B9F78A9599F722960895EE2349
:100830000E2EEA2F19F0EE0F0A94E9F70895EE0F45
:10084000FF1FEE0FFF1FEE0FFF1F0895F695E795B0
:10085000F695E795F695E795F695E7950895EE23D5
:10086000E1E009F0EE2708956E2F6A9FF0016B9F7B
:10087000F00D0895002498E0AA0F001C0E1A10F441
:100880000E0E01C0A1609A95B9F7EA2FA02D089528
:10089000F1DFEA2F08950590F491E02D0895A591D8
:1008A000B49108955A934A933A932A931A930A93C8
:1008B00008955D814C813B812A81198108810895C9
:00000001FF
