:0C0000003CC0FECFFDCFFCCFA9C0FACF62
:10000C00F9CFF8CF63C0F6CFF5CFF4CFF3CFF2CF63
:10001C00F1CFF0CFEFCFEECFEDCF286F584A0F8A4C
:10002C00886E080A0C89B849989CDF1EFFCD99FE92
:10003C00FB00020408016400C80090012003F8FFD3
:10004C00FCFFFEFFFFFF00000000000000000100AD
:10005C002D4E414E00494E46000001000200520058
:10006C00050005005400010076015A000000F894C8
:10007C00EE27ECBBF1E0FBBFEBBFE5BFF8E1F1BD58
:10008C00E1BD8DE0A2E0BB27ED938A95E9F780E016
:10009C0094E0A0E6ED930197E9F7E6E6F0E08591B0
:1000AC009591009761F0A591B59105901590BF01C0
:1000BC00F00105900D920197E1F7FB01F0CFEFE510
:1000CC00EDBFE4E0EEBFC0E6D1E031C10A921A9276
:1000DC00FA926A937A938A939A93AA93BA93EA932D
:1000EC00FA93EFB7EA93992029F4989902C0E1E0CA
:1000FC009E2E20C0E1E0E91571F4989903C0E2E06E
:10010C009E2E37D2999902C037D23AD29A9902C010
:10011C0033D23AD20FC0E2E0E91561F4989902C0EB
:10012C00992427D2999902C033D22AD29A9902C023
:10013C002FD22AD2E991EFBFF991E991B991A99106
:10014C009991899179916991F990199009901895E3
:10015C000A92AA93EA93FA93EFB7EA93E0E0E2BB30
:10016C001BD21DD2E0811ED2EA5DFF4F049008BA6B
:10017C0020FE03C0E2E0E51509F001C0C398E2B32C
:10018C00AE2F0AD2E25CFF4FE491EA2BE2BB539410
:10019C00E3E0E51508F45524E991EFBFF991E991F5
:1001AC00A99109901895FF92AA9368D3FF2400E0B7
:1001BC00E89420F8EA81E03071F4A1E0B0E035D3A6
:1001CC00EE2312F46894F0F8EFD1A6E1A083D4D119
:1001DC00DF0124D11E2FAA81A13071F4A3E0B0E07D
:1001EC0024D3EE2312F46894F0F8DED1A5E1A083B9
:1001FC00CFD1DF0113D11E2F1A30B8F0D5D1DF01CA
:10020C00F0FE02C0E0E101C0E2E1EC93CDD1BF0110
:10021C00A12FEAE0EED2DB01EC93C6D1BF01A12FF6
:10022C00EAE0F5D2DB01EC930DC0BED1A2E1A083D4
:10023C00BBD1DF01F0FE02C0E0E101C0E2E1EC93D2
:10024C00B3D1108322D32396FF900895FF92249765
:10025C0011D320E0A3010024601470043CF4FA01D3
:10026C00E095F0953196AF01689401C0E894F0F8F0
:10027C00FA01ABD2E887F987FA01EF70F070EE83E0
:10028C00FF83AE81BF81EAE0AED29FD20E2F1885DC
:10029C00143688F5A12F63D13E2FA12EBB24053037
:1002AC0018F0F50131965F01F0FE05C0E0E0F0E0DA
:1002BC00EA19FB095F01689420F81A3060F078D1D4
:1002CC00F0FE02C0E0E101C0E2E1EC9371D1E32F5A
:1002DC00E295EF7009C072D1A2E1A08369D1F0FE62
:1002EC0002C0E0E101C0E2E1EC9362D1E32FEF70D8
:1002FC00EC9364D10083C5D22A96FF90089521FE19
:10030C0004C046D1EA15FB050CF003C0AB98E89489
:10031C0021F8A0E021FCA1E0A03021F42DD1AE16F3
:10032C00BF060CF003C0AB9A689421F80895EFEF68
:10033C00E8BBE7BBE5BBE4BBE0E0E2BBEFEFE1BB56
:10034C00E0E0E3BFE2BFEFBDE3E0EEBDE0E0EDBD1A
:10035C00ECBDE7BDE6BDEBBDEABDE9BDE8BDE2BD68
:10036C00E5E0E5BDE0E0E4BDE3BDE5BFE4E4E9BF05
:10037C00E0E0EAB9E0E8E8B9E0E0E0BFE6B9EDB901
:10038C00E6BFAB9846D1E0EFEA93ADE6B1E091D190
:10039C004E2E7894E2E1E0936901E0936A01EFE07C
:1003AC00E0936B0140926C01E1E04E1678F000E0B6
:1003BC0010E008D158F40CD1A081A83221F408D156
:1003CC00DF017ED03F010F5F1F4FF3CF9920D1F497
:1003DC00E1E04E16B0F000E010E0F4D090F4F8D06C
:1003EC00A081A83221F4F4D0DF016AD03F01E1EF03
:1003FC00F8EDE615F70511F029DF81DF0F5F1F4FD0
:10040C00ECCF0AC0E1E0E91511F4A0E004C0E2E091
:10041C00E91511F4A1E0C7DED9CFFFCFE1D0E99106
:10042C00F99130971AF4E095F09531960895D8D05B
:10043C001A93EFD0E03011F4E0E08EC0E981FA813C
:10044C00309789F0F894A5E52AD1789410E0F894C7
:10045C00CAD0ED91A983BA83AE2F21D178941F5FB6
:10046C001830A8F304C0F894ACEC19D17894E1E0FE
:10047C0073C0B6D001D2AC81BD81D9DFE03011F4AC
:10048C00E0E01BC0F894AEEB0AD1789410E020E6C3
:10049C0031E0F8943F932F932F5F3F4FFBD0AF91F8
:1004AC00BF91EC9378941F5F193098F3E0E6F1E07C
:1004BC00FA93EA93A9E06CD191D1E5D126960895EF
:1004CC008FD01A9390D0B3DFE03019F4E1EFF8ED50
:1004DC0043C08CD0A83239F4E0916401E295EF70FE
:1004EC00E695E3701E2FF894A4E4D9D078947ED0CE
:1004FC00A03119F4A6E2B2E082D078D0A83231F45F
:10050C00E12FA2E4B0E075D089D179D06CD0B1DF05
:10051C00E03019F4E1EFF8ED1FC0F8947AD078943C
:10052C0065D0A03159F4F0916101E0E0DF01E09178
:10053C00600138D0EA2BFB2B41D10EC057D0A8322A
:10054C0059F4E12FAAE4B0E054D064D1A091600139
:10055C00B0916101EA23FB23188123960895AA9395
:10056C00A991EE27AA5012F0E05FFCCFA65FEA0F2C
:10057C000895A4E6B0E043C0A0E0B0E052D10895E5
:10058C0031975FD13196F5CF31965BD13197F1CF61
:10059C00A2E0B0E046D10895E52DF0E00895E759CA
:1005AC00FE4F0895F0E00895E02F0F5FFBDFF7CFCB
:1005BC00E22F2F5FF7DFF3DFDF010895E22F2F5FCC
:1005CC00F1DFEDCFE42DD801EDDFAE17BF070895B5
:1005DC00A9E0A09FF001A19FF00DE359FE4F0895F3
:1005EC00BA93AA930895A981BA810895FCDFAC91BE
:1005FC000895D8DFEE0FFF1FEA0FFB1F089510962A
:10060C0039F080ED97E00197F1F7A8951197C9F7AC
:10061C000895EE2797988F9A80EC93E00197F1F765
:10062C008F9885E28A95F1F7879B08958BEC8A95D4
:10063C00F1F7879BE1E08CE093E00197F1F70895E7
:10064C008F9A85E08A95F1F78F988DE18A95F1F76D
:10065C00889487990894E79585ED8A95F1F7089524
:10066C00E8948F9A85E08A95F1F770FD8F9883E274
:10067C008A95F1F7879903C070FF03C0089570FF46
:10068C00089588EC8A95F1F78F988DE08A95F1F7AB
:10069C006894089568E0D4DF6A95E9F708957A2F95
:1006AC0068E0EE27DDDF26F477956A95D9F7E395B8
:1006BC0008954F935F9311244427012C1124A9DF33
:1006CC00EE2301F1AF93A881EADFAF9151E0501511
:1006DC0098F4B6DFE7FD08C0B3DFE7FD06C03FD0F6
:1006EC00892319F4152E01C0ABDF39D0892370E0B2
:1006FC0009F071E0B5DF1EC0A3DFE7FF0BC0A0DF80
:10070C00E7FF05C0E42F5F914F91219608956894FF
:10071C0037D0EFCF95DFE7FF01C003C0501531F0A4
:10072C00152EE8942DD077279BDF04C0689428D031
:10073C0071E096DF5395513454F282DFEE1FEE1FB9
:10074C00E1701896EC93189743951120D9F259E063
:10075C00EC911996EC9318975A95D1F7AECFE52FEB
:10076C00EA956E2FE695E695E695FF27EA0FFB1FB7
:10077C00808191E0677019F0990F6A95FCCF08950C
:10078C00EEDF1EF09095892301C0892B808308959C
:10079C00EE27AA2389F08A2F68E1A881B98198E015
:1007AC00FD917F2F7E27779508F4E627E795F69540
:1007BC009A95B9F78A9599F722960895EE0FFF1F2F
:1007CC00EE0FFF1FEE0FFF1F0895F695E795F695B8
:1007DC00E795F695E795F695E7950895EE23E1E014
:1007EC0009F0EE2708956E2F6A9FF0016B9FF00DB4
:1007FC000895002498E0AA0F001C0E1A10F40E0E97
:10080C0001C0A1609A95B9F7EA2FA02D0895F1DFE8
:10081C00EA2F08950590F491E02D0895A591B491D7
:10082C000895119602D0FE2F1197E199FECFFF93F8
:10083C00FFB7F894AEBBBFBBE09AEDB3FFBFFF911F
:10084C00089507D01196EF93EF2F03D0EF911197E6
:10085C000895E19B02C0A895FCCF9FB7F894AEBB5E
:10086C00BFBBE09A8DB3E81719F0EDBBE29AE19AA1
:10087C009FBF08955A934A933A932A931A930A93D3
:10088C0008955D814C813B812A81198108810895ED
:00000001FF
