:0600000042C0FECFFDCF5F
:10000600FCCFB9C0FACFF9CFF8CF69C0F6CFF5CF9C
:10001600F4CFF3CFF2CFF1CFF0CFEFCFEECFEDCFDE
:10002600286F584A0F8A886E080A0C89B849989C26
:10003600DF1EFFCD99FEFB00020408016400C80024
:1000460090012003F8FFFCFFFEFFFFFF0000030006
:1000560000000000000000FDFF0001002D4E414E93
:1000660000494E46000001000200520001007601E0
:1000760054000900050056000100780160000000E8
:10008600F894EE27ECBBF1E0FBBFEBBFE5BFF8E170
:10009600F1BDE1BD8DE0A2E0BB27ED938A95E9F7BE
:1000A60080E094E0A0E6ED930197E9F7ECE6F0E056
:1000B60085919591009761F0A591B5910590159060
:1000C600BF01F00105900D920197E1F7FB01F0CF1A
:1000D600EFE5EDBFE4E0EEBFC0E6D1E03CC10A9239
:1000E6001A92FA926A937A938A939A93AA93BA93F4
:1000F600EA93FA93EFB7EA93992029F4989902C004
:10010600E1E09E2E2AC0E1E0E91591F4989903C03A
:10011600E2E09E2E42D2999904C0F60131976F0112
:100126003CD29A9904C0F60131966F0136D215C0B9
:10013600E2E0E91591F4989902C099242ED2999992
:1001460005C02ED23197FE93EE9327D29A9905C019
:1001560027D23196FE93EE9320D2E991EFBFF99123
:10016600E991B991A9919991899179916991F990BA
:100176001990099018950A92AA93EA93FA93EFB701
:10018600EA93E0E0E2BB11D213D2E08114D2EA5D39
:10019600FF4F049008BA20FE03C0E2E0E51509F01F
:1001A60001C0C398E2B3AE2F00D2E25CFF4FE491E8
:1001B600EA2BE2BB5394E3E0E51508F45524E991F4
:1001C600EFBFF991E991A99109901895FF92AA9329
:1001D60035D3FF2400E0E89420F8EA81E03061F4AA
:1001E6000024C014D00414F46894F0F8E6D1A6E113
:1001F600A083D60127D11E2FAA81A13079F4A09120
:100206007701AA2312F46894F0F8D7D1A5E1A08368
:10021600A0917601B091770115D11E2F1A30B8F052
:10022600CCD1DF01F0FE02C0E0E101C0E2E1EC93D7
:10023600C4D1BF01A12FEAE0E5D2DB01EC93BDD129
:10024600BF01A12FEAE0ECD2DB01EC930DC0B5D1E2
:10025600A2E1A083B2D1DF01F0FE02C0E0E101C05D
:10026600E2E1EC93AAD11083F0D22396FF90089591
:10027600FF922497DFD220E0A301002460147004CB
:100286003CF4FA01E095F0953196AF01689401C00F
:10029600E894F0F8FA01A2D2E887F987FA01EF703C
:1002A600F070EE83FF83AE81BF81EAE0A5D296D2DD
:1002B6000E2F1885143688F5A12F65D13E2FA12E55
:1002C600BB24053018F0F50131965F01F0FE05C03C
:1002D600E0E0F0E0EA19FB095F01689420F81A30C3
:1002E60060F06FD1F0FE02C0E0E101C0E2E1EC9304
:1002F60068D1E32FE295EF7009C069D1A2E1A0832E
:1003060060D1F0FE02C0E0E101C0E2E1EC9359D118
:10031600E32FEF70EC935BD1008393D22A96FF9084
:10032600089521FE07C0E0917601F0917701EA1564
:10033600FB050CF003C0AB98E89421F8A0E021FC83
:10034600A1E0A03019F4AC14BD040CF003C0AB9AC4
:10035600689421F80895EFEFE8BBE7BBE5BBE4BB83
:10036600E0E0E2BBEFEFE1BBE0E0E3BFE2BFEFBD01
:10037600E3E0EEBDE0E0EDBDECBDE7BDE6BDEBBD07
:10038600EABDE9BDE8BDE2BDE5E0E5BDE0E0E4BD0E
:10039600E3BDE5BFE4E4E9BFE0E0EAB9E0E8E8B9D7
:1003A600E0E0E0BFE6B9EDB9E6BFAB983BD1E0EFE0
:1003B600EA93ADE6B1E086D14E2E7894E2E1E09381
:1003C6006901E0936A01EFE0E0936B0140926C01F2
:1003D600E1E04E1678F000E010E0FDD058F401D1CF
:1003E600A081A83221F4FDD0DF017ED03F010F5F4E
:1003F6001F4FF3CF9920D1F4E1E04E16B0F000E0A4
:1004060010E0E9D090F4EDD0A081A83221F4E9D033
:10041600DF016AD03F01E1EFF8EDE615F70511F0CF
:1004260027DF7FDF0F5F1F4FECCF0AC0E1E0E91542
:1004360011F4A0E004C0E2E0E91511F4A1E0C6DE83
:10044600D9CFFFCFD6D0E991F99130971AF4E0953C
:10045600F09531960895CDD01A93E4D0E03011F49A
:10046600E0E08EC0E981FA81309789F0F894A5E53D
:100476001FD1789410E0F894BFD0ED91A983BA8388
:10048600AE2F16D178941F5F1830A8F304C0F894E5
:10049600ACEC0ED17894E1E073C0ABD0CDD1AC8199
:1004A600BD81D9DFE03011F4E0E01BC0F894AEEB7B
:1004B600FFD0789410E020E631E0F8943F932F9334
:1004C6002F5F3F4FF0D0AF91BF91EC9378941F5FB1
:1004D600193098F3E0E6F1E0FA93EA93A9E061D1E6
:1004E60086D1B1D12696089584D01A9385D0B3DFEC
:1004F600E03019F4E1EFF8ED43C081D0A83239F4C9
:10050600E0916401E295EF70E695E3701E2FF89492
:10051600A4E4CED0789473D0A03119F4A6E2B2E068
:1005260077D06DD0A83231F4E12FA2E4B0E06AD0E2
:100536007ED16ED061D0B1DFE03019F4E1EFF8ED95
:100546001FC0F8946FD078945AD0A03159F4F09126
:100556006101E0E0DF01E09160012DD0EA2BFB2B89
:1005660036D10EC04CD0A83259F4E12FAAE4B0E03F
:1005760049D059D1A0916001B0916101EA23FB23D2
:10058600188123960895AA93A991EE27AA5012F0EE
:10059600E05FFCCFA65FEA0F0895AAEFB0E038C08F
:1005A600A6E7B1E0ED91FD910895E52DF0E00895FF
:1005B600E759FE4F0895F0E00895E02F0F5FFBDF47
:1005C600F7CFE22F2F5FF7DFF3DFDF010895E22F8A
:1005D6002F5FF1DFEDCFE42DD801EDDFAE17BF07BA
:1005E6000895A9E0A09FF001A19FF00DE359FE4FE9
:1005F6000895BA93AA930895A981BA810895FCDF54
:10060600AC910895D8DFEE0FFF1FEA0FFB1F089588
:10061600109639F080ED97E00197F1F7A8951197BC
:10062600C9F70895EE2797988F9A80EC93E0019783
:10063600F1F78F9885E28A95F1F7879B08958BEC01
:100646008A95F1F7879BE1E08CE093E00197F1F75B
:1006560008958F9A85E08A95F1F78F988DE18A95AE
:10066600F1F7889487990894E79585ED8A95F1F7CF
:100676000895E8948F9A85E08A95F1F770FD8F9832
:1006860083E28A95F1F7879903C070FF03C0089546
:1006960070FF089588EC8A95F1F78F988DE08A951A
:1006A600F1F76894089568E0D4DF6A95E9F708954C
:1006B6007A2F68E0EE27DDDF26F477956A95D9F77D
:1006C600E39508954F935F9311244427012C112439
:1006D600A9DFEE2301F1AF93A881EADFAF9151E0E4
:1006E600501598F4B6DFE7FD08C0B3DFE7FD06C096
:1006F6003FD0892319F4152E01C0ABDF39D08923E9
:1007060070E009F071E0B5DF1EC0A3DFE7FF0BC0A4
:10071600A0DFE7FF05C0E42F5F914F912196089572
:10072600689437D0EFCF95DFE7FF01C003C05015BF
:1007360031F0152EE8942DD077279BDF04C06894FE
:1007460028D071E096DF5395513454F282DFEE1FC4
:10075600EE1FE1701896EC93189743951120D9F285
:1007660059E0EC911996EC9318975A95D1F7AECFBC
:10077600E52FEA956E2FE695E695E695FF27EA0FB3
:10078600FB1F808191E0677019F0990F6A95FCCF85
:100796000895EEDF1EF09095892301C0892B808392
:1007A6000895EE27AA2389F08A2F68E1A881B981E6
:1007B60098E0FD917F2F7E27779508F4E627E79549
:1007C600F6959A95B9F78A9599F722960895EE0FB8
:1007D600FF1FEE0FFF1FEE0FFF1F0895F695E7951B
:1007E600F695E795F695E795F695E7950895EE2340
:1007F600E1E009F0EE2708956E2F6A9FF0016B9FE6
:10080600F00D0895002498E0AA0F001C0E1A10F4AB
:100816000E0E01C0A1609A95B9F7EA2FA02D089592
:10082600F1DFEA2F08950590F491E02D0895A59142
:10083600B49108955A934A933A932A931A930A9332
:1008460008955D814C813B812A8119810881089533
:00000001FF
