:0A00000040C0FECFFDCFFCCF6BC067
:10000A00FACFF9CFF8CFF7CFF6CFF5CFF4CFF3CFBA
:10001A00F2CFF1CFF0CFEFCFEECFEDCF28EB32A278
:10002A00E1A424EA20A060253C233474F7F0FF679A
:10003A0035FEBF006400C80090012003F8FFFCFFF2
:10004A00FEFFFFFF0000030000000000000000FDAB
:10005A00FF0001002D4E414E00494E4600000100AE
:10006A0002004E000100760150000900050052000E
:10007A00010078015C000000F894EE27ECBBF1E087
:10008A00FBBFEBBFE5BFF8E1F1BDE1BD8DE0A2E04A
:10009A00BB27ED938A95E9F780E094E0A0E6ED931B
:1000AA000197E9F7E8E6F0E085919591009761F00C
:1000BA00A591B59105901590BF01F00105900D929B
:1000CA000197E1F7FB01F0CFEFE5EDBFE4E0EEBF0A
:1000DA00C0E6D1E0F1C00A921A92AA93EA93FA937F
:1000EA00EFB7EA93E0E0E2BBE52D2AD22BD2E0811A
:1000FA0027D2EA5DFF4F049008BA20FE03C0E2E06F
:10010A00E51509F001C0C59812B2E52DA1E037D373
:10011A00E129E2BB5394E3E0E51508F45524E9919B
:10012A00EFBFF991E991A991199009901895FF9259
:10013A00AA9364D3FF2400E0E89420F8EA81E0302F
:10014A0061F40024C014D00414F46894F0F8FDD1CA
:10015A00A6E1A083D60149D11E2FAA81A13079F444
:10016A00A0917701AA2312F46894F0F8EED1A5E1E0
:10017A00A083A0917601B091770137D11E2F1A3052
:10018A00B8F0E3D1DF01F0FE02C0E0E101C0E2E134
:10019A00EC93DBD1BF01A12FEAE014D3DB01EC938E
:1001AA00D4D1BF01A12FEAE01BD3DB01EC930DC030
:1001BA00CCD1A2E1A083C9D1DF01F0FE02C0E0E107
:1001CA0001C0E2E1EC93C1D110831FD32396FF90C3
:1001DA000895FF9224970ED320E0A301002460140F
:1001EA0070043CF4FA01E095F0953196AF016894F9
:1001FA0001C0E894F0F8FA01D1D2E887F987FA0148
:10020A00EF70F070EE83FF83AE81BF81EAE0D4D253
:10021A00C5D20E2F1885143688F5A12F87D13E2F07
:10022A00A12EBB24053018F0F50131965F01F0FECE
:10023A0005C0E0E0F0E0EA19FB095F01689420F8E4
:10024A001A3060F086D1F0FE02C0E0E101C0E2E1BE
:10025A00EC937FD1E32FE295EF7009C080D1A2E140
:10026A00A08377D1F0FE02C0E0E101C0E2E1EC93A5
:10027A0070D1E32FEF70EC9372D10083C2D22A9629
:10028A00FF90089521FE07C0E0917601F091770171
:10029A00EA15FB050CF003C0AB98E89421F8A0E03E
:1002AA0021FCA1E0A03019F4AC14BD040CF003C089
:1002BA00AB9A689421F80895EFEFE8BBE7BBE5BB7A
:1002CA00E4BBE0E0E2BBEFEFE1BBE0E0E3BFE2BFAB
:1002DA00EFBDEEBDEDBDECBDE7BDE6BDEBBDEABDD4
:1002EA00E9BDE8BDE2BDE5E0E5BDE0E0E4BDE3BDB2
:1002FA00E5BFE0E4E9BFE0E0EAB9E0E8E8B9E0E058
:10030A00E0BFE6B9EDB9E6BFAB9864D1E0EFEA9396
:10031A00ADE6B1E0AFD14E2E7894E2E1E093690107
:10032A00E0936A01EFE0E0936B0140926C01E1E037
:10033A004E1678F000E010E016D158F41AD1A081D8
:10034A00A83221F416D1DF01A2D03F010F5F1F4F5F
:10035A00F3CF9920F1F4989902C0E1E012D1E1E0DB
:10036A004E16B0F000E010E0FED090F402D1A08169
:10037A00A83221F4FED0DF018AD03F01E1EFF8ED87
:10038A00E615F70511F025DF7DDF0F5F1F4FECCF74
:10039A002AC0E1E0E91581F4989902C0E2E0F1D0BF
:1003AA00999903C0F6013197F0D09A9903C0F601E2
:1003BA003196EBD0A0E016C0E2E0E915A1F49899D5
:1003CA0002C09924E6D0999905C0E6D03197FE93E8
:1003DA00EE93DFD09A9905C0DFD03196FE93EE9363
:1003EA00D8D0A1E0A4DEB5CFFFCFDBD0E991F99157
:1003FA0030971AF4E095F09531960895D2D01A9371
:10040A00E9D0E03011F4E0E08EC0E981FA8130975A
:10041A0089F0F894A5E524D1789410E0F894C4D032
:10042A00ED91A983BA83AE2F1BD178941F5F183040
:10043A00A8F304C0F894ACEC13D17894E1E073C04B
:10044A00B0D0DAD1AC81BD81D9DFE03011F4E0E07F
:10045A001BC0F894AEEB04D1789410E020E631E0AA
:10046A00F8943F932F932F5F3F4FF5D0AF91BF91F1
:10047A00EC9378941F5F193098F3E0E6F1E0FA9371
:10048A00EA93A9E066D193D1BED12696089589D080
:10049A001A938AD0B3DFE03019F4E1EFF8ED43C0E4
:1004AA0086D0A83239F4E0916401E295EF70E695BE
:1004BA00E3701E2FF894A4E4D3D0789478D0A031B6
:1004CA0019F4A6E2B2E07CD072D0A83231F4E12F5E
:1004DA00AEE3B0E06FD08BD173D066D0B1DFE0303D
:1004EA0019F4E1EFF8ED1FC0F89474D078945FD056
:1004FA00A03159F4F0916101E0E0DF01E09160017F
:10050A001FD0EA2BFB2B43D10EC051D0A83259F48D
:10051A00E12FA6E4B0E04ED066D1A0916001B0917F
:10052A006101EA23FB23188123960895AA93A991CE
:10053A00EE27AA5012F0E05FFCCFA65FEA0F0895FB
:10054A00F0E00895E759FE4F0895E02F0F5FF8DFB6
:10055A00F9CFE22F2F5FF4DFF5DFDF010895E22FF5
:10056A002F5FEEDFEFCFE42DD801EADFAE17BF072A
:10057A000895A9E0A09FF001A19FF00DE359FE4F55
:10058A0008959E2EAAEFB0E01BC06F01AAEFB0E05B
:10059A0017C0AAEFB0E014C0A6E7B1E0ED91FD9153
:1005AA000895BA93AA930895A981BA810895FCDFA0
:1005BA00AC910895C5DFEE0FFF1FEA0FFB1F0895E8
:1005CA00109639F080ED97E00197F1F7A895119709
:1005DA00C9F70895EE2797988F9A80EC93E00197D0
:1005EA00F1F78F9885E28A95F1F7879B08958BEC4E
:1005FA008A95F1F7879BE1E08CE093E00197F1F7A8
:10060A0008958F9A85E08A95F1F78F988DE18A95FA
:10061A00F1F7889487990894E79585ED8A95F1F71B
:10062A000895E8948F9A85E08A95F1F770FD8F987E
:10063A0083E28A95F1F7879903C070FF03C0089592
:10064A0070FF089588EC8A95F1F78F988DE08A9566
:10065A00F1F76894089568E0D4DF6A95E9F7089598
:10066A007A2F68E0EE27DDDF26F477956A95D9F7C9
:10067A00E39508954F935F9311244427012C112485
:10068A00A9DFEE2301F1AF93A881EADFAF9151E030
:10069A00501598F4B6DFE7FD08C0B3DFE7FD06C0E2
:1006AA003FD0892319F4152E01C0ABDF39D0892335
:1006BA0070E009F071E0B5DF1EC0A3DFE7FF0BC0F1
:1006CA00A0DFE7FF05C0E42F5F914F9121960895BF
:1006DA00689437D0EFCF95DFE7FF01C003C050150C
:1006EA0031F0152EE8942DD077279BDF04C068944B
:1006FA0028D071E096DF5395513454F282DFEE1F11
:10070A00EE1FE1701896EC93189743951120D9F2D1
:10071A0059E0EC911996EC9318975A95D1F7AECF08
:10072A00E52FEA956E2FE695E695E695FF27EA0FFF
:10073A00FB1F808191E0677019F0990F6A95FCCFD1
:10074A000895EEDF1EF09095892301C0892B8083DE
:10075A000895EE27AA2389F08A2F68E1A881B98132
:10076A0098E0FD917F2F7E27779508F4E627E79595
:10077A00F6959A95B9F78A9599F722960895EE23F0
:10078A000E2EEA2F19F0EE0F0A94E9F70895EE0FEC
:10079A00FF1FEE0FFF1FEE0FFF1F0895F695E79557
:1007AA00F695E795F695E795F695E7950895EE237C
:1007BA00E1E009F0EE2708956E2F6A9FF0016B9F22
:1007CA00F00D0895002498E0AA0F001C0E1A10F4E8
:1007DA000E0E01C0A1609A95B9F7EA2FA02D0895CF
:1007EA00F1DFEA2F08950590F491E02D0895A5917F
:1007FA00B49108955A934A933A932A931A930A936F
:10080A0008955D814C813B812A811981088108956F
:00000001FF
