:0C00000043C0FECFFDCFFCCFFBCFFACFFA
:10000C00F9CFF8CFF7CF71C0F5CFF4CFF3CFF2CF54
:10001C00F1CFF0CFEFCFEECFEDCFECCFEBCFEACFF0
:10002C00E9CFE8CFE7CFE6CF28EB32A2E1A424EA70
:10003C0020A060253C233474F7F0FF6735FEBF0029
:10004C006400C80090012003F8FFFCFFFEFFFFFFD7
:10005C00030000000000000000FDFF0001002D4E19
:10006C00414E00494E460000010016025C0009009A
:10007C0005005E000100180268000000F894EE27ED
:10008C00EFBBF1E0F5BFE5BFF8E1A895A4B7A77FFA
:10009C00A4BFF0936000E09360008DE0A2E0BB276A
:1000AC00ED938A95E9F780E094E0A0E0B1E0ED9360
:1000BC000197E9F7E4E7F0E085919591009761F0FD
:1000CC00A591B59105901590BF01F00105900D9289
:1000DC000197E1F7FB01F0CFE0E0EEBBEFEFEDBFF6
:1000EC00E4E0EEBFC0E0D2E0EDC00A921A92AA930F
:1000FC00EA93FA93EFB7EA93E0E0EBB9E52D50D22F
:10010C0051D2E0814DD2EC5CFF4F049005B8F09BCE
:10011C0003C0E2E0E51509F001C02D981BB0E52DF8
:10012C00A1E05DD3E129EBB95394E3E0E51508F4C4
:10013C005524E991EFBFF991E991A9911990099092
:10014C001895FF92AA938AD3FF2400E0F098EA81D5
:10015C00E03061F40024C014D00414F46894F0F876
:10016C0024D2A6E1A083D60170D11E2FAA81A13082
:10017C0079F4A0911702AA2312F46894F0F815D21E
:10018C00A5E1A083A0911602B09117025ED11E2F9B
:10019C001A30B8F00AD2DF01F0FE02C0E0E101C073
:1001AC00E2E1EC9302D2BF01A12FEAE03BD3DB01E9
:1001BC00EC93FBD1BF01A12FEAE042D3DB01EC931E
:1001CC000DC0F3D1A2E1A083F0D1DF01F0FE02C09B
:1001DC00E0E101C0E2E1EC93E8D1108346D3239631
:1001EC00FF900895FF92249735D320E0A3010024BB
:1001FC00601470043CF4FA01E095F0953196AF016F
:10020C00689401C0E894F0F8FA01F8D2E887F9870D
:10021C00FA01EF70F070EE83FF83AE81BF81EAE0EC
:10022C00FBD2ECD20E2F1885143680F5A12FAED14F
:10023C003E2FA12EBB24053018F0F50131965F013D
:10024C00F0FE05C0E0E0F0E0EA19FB095F01F09A6E
:10025C001A3060F0AED1F0FE02C0E0E101C0E2E184
:10026C00EC93A7D1E32FE295EF7009C0A8D1A2E1DE
:10027C00A0839FD1F0FE02C0E0E101C0E2E1EC936B
:10028C0098D1E32FEF70EC939AD10083EAD22A969F
:10029C00FF900895F19B07C0E0911602F0911702B0
:1002AC00EA15FB050CF002C04398F198A0E0F19917
:1002BC00A1E0A03019F4AC14BD040CF002C0439AB8
:1002CC00F19A0895E0E8E0936100E0E0E0936100CA
:1002DC00EFEFE5B9E4B9E8B9E7B9E0E0EBB9EFEF76
:1002EC00EAB9E0E0E4BDE5BDE6BDE7BDE8BDE093FD
:1002FC008000E0938100E0938500E0938400E0931C
:10030C008700E0938600E0938900E0938800E093F7
:10031C008B00E0938A00E093B600E093B000E5E038
:10032C00E093B100E0E0E093B200E093B300E0931F
:10033C00B400E0936900EDBBE0936800E0936E00BD
:10034C00E0936F00E1E0E0937000E0E0E093C10027
:10035C00E0E8E0BFE0E0E0937B00E0937F00E09317
:10036C007A00ECBDE093BC00439864D1E0EFEA93D3
:10037C00ADE0B2E0AFD14E2E7894E2E1E093090209
:10038C00E0930A02EFE0E0930B0240920C02E1E0F2
:10039C004E1678F000E010E016D158F41AD1A08176
:1003AC00A83221F416D1DF01A2D03F010F5F1F4FFD
:1003BC00F3CF9920F1F4309902C0E1E012D1E1E0E1
:1003CC004E16B0F000E010E0FED090F402D1A08107
:1003DC00A83221F4FED0DF018AD03F01E1EFF8ED25
:1003EC00E615F70511F0FEDE55DF0F5F1F4FECCF62
:1003FC002AC0E1E0E91581F4309902C0E2E0F1D0C5
:10040C00319903C0F6013197F0D0329903C0F6014F
:10041C003196EBD0A0E016C0E2E0E915A1F43099DA
:10042C0002C09924E6D0319905C0E6D03197FE93ED
:10043C00EE93DFD0329905C0DFD03196FE93EE9368
:10044C00D8D0A1E07EDEB5CFFFCFDBD0E991F9911A
:10045C0030971AF4E095F09531960895D2D01A930E
:10046C00E9D0E03011F4E0E08EC0E981FA813097F8
:10047C0089F0F894A5E524D1789410E0F894C4D0D0
:10048C00ED91A983BA83AE2F1BD178941F5F1830DE
:10049C00A8F304C0F894ACEC13D17894E1E073C0E9
:1004AC00B0D0DAD1AC81BD81D9DFE03011F4E0E01D
:1004BC001BC0F894AEEB04D1789410E020E032E04D
:1004CC00F8943F932F932F5F3F4FF5D0AF91BF918F
:1004DC00EC9378941F5F193098F3E0E0F2E0FA9314
:1004EC00EA93A9E066D193D1BED12696089589D01E
:1004FC001A938AD0B3DFE03019F4E1EFF8ED43C082
:10050C0086D0A83239F4E0910402E295EF70E695BA
:10051C00E3701E2FF894A4E4D3D0789478D0A03153
:10052C0019F4A6E2B2E07CD072D0A83231F4E12FFB
:10053C00ACE4B0E06FD08BD173D066D0B1DFE030DB
:10054C0019F4E1EFF8ED1FC0F89474D078945FD0F3
:10055C00A03159F4F0910102E0E0DF01E0910002DA
:10056C001FD0EA2BFB2B43D10EC051D0A83259F42B
:10057C00E12FA4E5B0E04ED066D1A0910002B0917D
:10058C000102EA23FB23188123960895AA93A991CB
:10059C00EE27AA5012F0E05FFCCFA65FEA0F089599
:1005AC00F0E00895E75FFD4F0895E02F0F5FF8DF4F
:1005BC00F9CFE22F2F5FF4DFF5DFDF010895E22F93
:1005CC002F5FEEDFEFCFE42DD801EADFAE17BF07C8
:1005DC000895A9E0A09FF001A19FF00DE35FFD4FEE
:1005EC0008959E2EAAEFB0E01BC06F01AAEFB0E0F9
:1005FC0017C0AAEFB0E014C0A6E1B2E0ED91FD91F6
:10060C000895BA93AA930895A981BA810895FCDF3D
:10061C00AC910895C5DFEE0FFF1FEA0FFB1F089585
:10062C00109639F080ED97E00197F1F7A8951197A6
:10063C00C9F70895EE275F98579A80EC93E00197DD
:10064C00F1F7579885E28A95F1F74F9B08958BEC5B
:10065C008A95F1F74F9BE1E08CE093E00197F1F77D
:10066C000895579A85E08A95F1F757988DE18A9508
:10067C00F1F788944F990894E79585ED8A95F1F7F1
:10068C000895E894579A85E08A95F1F770FD57988C
:10069C0083E28A95F1F74F9903C070FF03C0089568
:1006AC0070FF089588EC8A95F1F757988DE08A953C
:1006BC00F1F76894089568E0D4DF6A95E9F7089536
:1006CC007A2F68E0EE27DDDF26F477956A95D9F767
:1006DC00E39508954F935F9311244427012C112423
:1006EC00A9DFEE2301F1AF93A881EADFAF9151E0CE
:1006FC00501598F4B6DFE7FD08C0B3DFE7FD06C080
:10070C003FD0892319F4152E01C0ABDF39D08923D2
:10071C0070E009F071E0B5DF1EC0A3DFE7FF0BC08E
:10072C00A0DFE7FF05C0E42F5F914F91219608955C
:10073C00689437D0EFCF95DFE7FF01C003C05015A9
:10074C0031F0152EE8942DD077279BDF04C06894E8
:10075C0028D071E096DF5395513454F282DFEE1FAE
:10076C00EE1FE1701896EC93189743951120D9F26F
:10077C0059E0EC911996EC9318975A95D1F7AECFA6
:10078C00E52FEA956E2FE695E695E695FF27EA0F9D
:10079C00FB1F808191E0677019F0990F6A95FCCF6F
:1007AC000895EEDF1EF09095892301C0892B80837C
:1007BC000895EE27AA2389F08A2F68E1A881B981D0
:1007CC0098E0FD917F2F7E27779508F4E627E79533
:1007DC00F6959A95B9F78A9599F722960895EE238E
:1007EC000E2EEA2F19F0EE0F0A94E9F70895EE0F8A
:1007FC00FF1FEE0FFF1FEE0FFF1F0895F695E795F5
:10080C00F695E795F695E795F695E7950895EE2319
:10081C00E1E009F0EE2708956E2F6A9FF0016B9FBF
:10082C00F00D0895002498E0AA0F001C0E1A10F485
:10083C000E0E01C0A1609A95B9F7EA2FA02D08956C
:10084C00F1DFEA2F08950590F491E02D0895A5911C
:10085C00B49108955A934A933A932A931A930A930C
:10086C0008955D814C813B812A811981088108950D
:00000001FF
