:0800000042C0FECFFDCFFCCF92
:10000800CCC0FACFF9CFF8CF69C0F6CFF5CFF4CF8F
:10001800F3CFF2CFF1CFF0CFEFCFEECFEDCF286F08
:10002800584A0F8A886E080A0C89B849989CDF1EBE
:10003800FFCD99FEFB00020408016400C80090018E
:100048002003F8FFFCFFFEFFFFFF00000300000095
:100058000000000000FDFF0001002D4E414E004948
:100068004E460000010002005200010076015400D3
:100078000900050056000100780160000000F894AE
:10008800EE27ECBBF1E0FBBFEBBFE5BFF8E1F1BD4C
:10009800E1BD8DE0A2E0BB27ED938A95E9F780E00A
:1000A80094E0A0E6ED930197E9F7ECE6F0E085919E
:1000B8009591009761F0A591B59105901590BF01B4
:1000C800F00105900D920197E1F7FB01F0CFEFE504
:1000D800EDBFE4E0EEBFC0E6D1E059C10A921A9242
:1000E800FA926A937A938A939A93AA93BA93EA9321
:1000F800FA93EFB7EA93E1E0E915C1F5882059F4DE
:100108009A9902C0E1E08E2E9B9904C09924AC987C
:10011800689422F82AC0E1E0E81591F49A9903C09E
:10012800E2E08E2E6DD2999904C0F60131976F01E5
:1001380067D2989904C0F60131966F0161D215C053
:10014800E2E0E81591F49A9902C0882459D2999965
:1001580005C059D23197FE93EE9352D2989905C0B3
:1001680052D23196FE93EE934BD209C0992039F4BE
:100178009B9905C0E1E09E2EAC9A689421F8E9911C
:10018800EFBFF991E991B991A991999189917991E3
:100198006991F9901990099018950A92AA93EA938F
:1001A800FA93EFB7EA93E2B3E073E2BB31D233D20A
:1001B800E08134D2EA5DFF4F049008BA20FE03C004
:1001C800E2E0E51509F001C0C398E2B3AE2F20D2F2
:1001D800E25CFF4FE491EA2BE2BB5394E3E0E515C0
:1001E80008F45524E991EFBFF991E991A991099093
:1001F8001895FF92AA9362D3FF2400E0E89420F8B0
:10020800EA81E03061F40024C014D00414F4689446
:10021800F0F806D2A6E1A083D60147D11E2FAA8105
:10022800A13079F4A0917701AA2312F46894F0F828
:10023800F7D1A5E1A083A0917601B091770135D1DE
:100248001E2F1A30B8F0ECD1DF01F0FE02C0E0E159
:1002580001C0E2E1EC93E4D1BF01A12FEAE012D39F
:10026800DB01EC93DDD1BF01A12FEAE019D3DB015B
:10027800EC930DC0D5D1A2E1A083D2D1DF01F0FE6D
:1002880002C0E0E101C0E2E1EC93CAD110831DD3C2
:100298002396FF900895FF9224970CD320E0A301A2
:1002A8000024601470043CF4FA01E095F09531964E
:1002B800AF01689401C0E894F0F8FA01CFD2E8875A
:1002C800F987FA01EF70F070EE83FF83AE81BF818A
:1002D800EAE0D2D2C3D20E2F1885143688F5A12FA2
:1002E80085D13E2FA12EBB24053018F0F50131969B
:1002F8005F01F0FE05C0E0E0F0E0EA19FB095F01EC
:10030800689420F81A3060F08FD1F0FE02C0E0E166
:1003180001C0E2E1EC9388D1E32FE295EF7009C0C8
:1003280089D1A2E1A08380D1F0FE02C0E0E101C042
:10033800E2E1EC9379D1E32FEF70EC937BD100836A
:10034800C0D22A96FF900895E1E0E915D1F423FE82
:1003580007C0E0917601F0917701EA15FB050CF0F2
:1003680003C0AD98E89423F8A0E023FCA1E0A030F6
:1003780019F4AC14BD040CF003C0AD9A689423F8CA
:1003880005C0992019F4AD98E89423F80895EFEF83
:10039800E8BBE7BBE5BBE4BBE0E0E2BBEFEFE1BBFA
:1003A800E0E0E3BFE2BFEFBDE3E0EEBDE0E0EDBDBE
:1003B800ECBDE7BDE6BDEBBDEABDE9BDE8BDE2BD0C
:1003C800E5E0E5BDE0E0E4BDE3BDE5BFE4E4E9BFA9
:1003D800E0E0EAB9E0E8E8B9E0E0E0BFE6B9EDB9A5
:1003E800E6BFAC98AD985ED1E0EFEA93ADE6B1E038
:1003F800A9D14E2E789422D1EFE0E0936B01409280
:100408006C01E1E04E1678F000E010E01DD158F4E0
:1004180021D1A081A83221F41DD1DF0198D03F015C
:100428000F5F1F4FF3CF8820A1F5E1E04E16B0F023
:1004380000E010E009D190F40DD1A081A83221F498
:1004480009D1DF0184D03F01E1EFF8EDE615F705AA
:1004580011F021DF79DF0F5F1F4FECCF21FE09C0BC
:10046800E89420F8EBD0E0E0E0936B01E3E1FAD008
:1004780021F822FE0DC0E89420F8E2E1E09369013A
:10048800E0E0E0936A01EFE0E0936B01EBD022F843
:100498000AC0E1E0E81511F4A0E004C0E2E0E815C4
:1004A80011F4A1E0A6DEBFCFFFCFE3D0E991F99127
:1004B80030971AF4E095F09531960895DAD01A93AA
:1004C800F1D0E03011F4E0E08EC0E981FA81309794
:1004D80089F0F894A5E52CD1789410E0F894CCD064
:1004E800ED91A983BA83AE2F23D178941F5F18307A
:1004F800A8F304C0F894ACEC1BD17894E1E073C085
:10050800B8D0DAD1AC81BD81D9DFE03011F4E0E0B8
:100518001BC0F894AEEB0CD1789410E020E631E0E3
:10052800F8943F932F932F5F3F4FFDD0AF91BF912A
:10053800EC9378941F5F193098F3E0E6F1E0FA93B2
:10054800EA93A9E06ED193D1BED12696089591D0B1
:100558001A9392D0B3DFE03019F4E1EFF8ED43C01D
:100568008ED0A83239F4E0916401E295EF70E695F7
:10057800E3701E2FF894A4E4DBD0789480D0A031E7
:1005880019F4A6E2B2E084D07AD0A83231F4E12F8F
:10059800A2E4B0E077D08BD17BD06ED0B1DFE03071
:1005A80019F4E1EFF8ED1FC0F8947CD0789467D087
:1005B800A03159F4F0916101E0E0DF01E0916001C0
:1005C8002DD0EA2BFB2B43D10EC059D0A83259F4B9
:1005D800E12FAAE4B0E056D066D1A0916001B091B5
:1005E8006101EA23FB23188123960895AA93A99110
:1005F800EE27AA5012F0E05FFCCFA65FEA0F08953D
:10060800A4E6B0E045C0A6E7B1E0ED91FD910895FC
:10061800E52DF0E00895E759FE4F0895F0E00895BC
:10062800E02F0F5FFBDFF7CFE22F2F5FF7DFF3DF5E
:10063800DF010895E22F2F5FF1DFEDCFE2E1E093D4
:100648006901E0936A010895E42DD801E7DFAE1748
:10065800BF070895A9E0A09FF001A19FF00DE359FD
:10066800FE4F0895E0936C01A4ECB9E011D0E89432
:100678000895BA93AA930895A981BA810895FCDFD1
:10068800AC910895CBDFEE0FFF1FEA0FFB1F089513
:10069800109639F080ED97E00197F1F7A89511973A
:1006A800C9F70895EE2797988F9A80EC93E0019701
:1006B800F1F78F9885E28A95F1F7879B08958BEC7F
:1006C8008A95F1F7879BE1E08CE093E00197F1F7D9
:1006D80008958F9A85E08A95F1F78F988DE18A952C
:1006E800F1F7889487990894E79585ED8A95F1F74D
:1006F8000895E8948F9A85E08A95F1F770FD8F98B0
:1007080083E28A95F1F7879903C070FF03C00895C3
:1007180070FF089588EC8A95F1F78F988DE08A9597
:10072800F1F76894089568E0D4DF6A95E9F70895C9
:100738007A2F68E0EE27DDDF26F477956A95D9F7FA
:10074800E39508954F935F9311244427012C1124B6
:10075800A9DFEE2301F1AF93A881EADFAF9151E061
:10076800501598F4B6DFE7FD08C0B3DFE7FD06C013
:100778003FD0892319F4152E01C0ABDF39D0892366
:1007880070E009F071E0B5DF1EC0A3DFE7FF0BC022
:10079800A0DFE7FF05C0E42F5F914F9121960895F0
:1007A800689437D0EFCF95DFE7FF01C003C050153D
:1007B80031F0152EE8942DD077279BDF04C068947C
:1007C80028D071E096DF5395513454F282DFEE1F42
:1007D800EE1FE1701896EC93189743951120D9F203
:1007E80059E0EC911996EC9318975A95D1F7AECF3A
:1007F800E52FEA956E2FE695E695E695FF27EA0F31
:10080800FB1F808191E0677019F0990F6A95FCCF02
:100818000895EEDF1EF09095892301C0892B80830F
:100828000895EE27AA2389F08A2F68E1A881B98163
:1008380098E0FD917F2F7E27779508F4E627E795C6
:10084800F6959A95B9F78A9599F722960895EE0F35
:10085800FF1FEE0FFF1FEE0FFF1F0895F695E79598
:10086800F695E795F695E795F695E7950895EE23BD
:10087800E1E009F0EE2708956E2F6A9FF0016B9F63
:10088800F00D0895002498E0AA0F001C0E1A10F429
:100898000E0E01C0A1609A95B9F7EA2FA02D089510
:1008A800F1DFEA2F08950590F491E02D0895A591C0
:1008B800B49108955A934A933A932A931A930A93B0
:1008C80008955D814C813B812A81198108810895B1
:00000001FF
