:0E0000002EC0FECFFDCFFCCF59C0FACFF9CFF6
:10000E00F8CFF7CFF6CFF5CFF4CFF3CFF2CFF1CFC6
:10001E00F0CFEFCFEECFEDCF28EB32A2E1A424EA62
:10002E0020A060253C233474F7F0FF673500640090
:10003E00C80090012003F8FFFCFFFEFFFFFF000049
:10004E000000010002004C00010005004E000000FF
:10005E00F894EE27ECBBF1E0FBBFEBBFE5BFF8E198
:10006E00F1BDE1BD8DE0A2E0BB27ED938A95E9F7E6
:10007E0080E094E0A0E6ED930197E9F7E0E5F0E08B
:10008E0085919591009761F0A591B5910590159088
:10009E00BF01F00105900D920197E1F7FB01F0CF42
:1000AE00EFE5EDBFE4E0EEBFC0E6D1E075C00A9229
:1000BE001A92AA93EA93FA93EFB7EA93E0E0E2BBBF
:1000CE00E52D6CD16DD1E08169D1EA5DFF4F0490D1
:1000DE0008BA20FE03C0E2E0E51509F001C0C5989C
:1000EE0012B2E52DA1E05CD2E129E2BB5394E3E02C
:1000FE00E51508F45524E991EFBFF991E991A9911D
:10010E00199009901895FF92249774D220E0A301BC
:10011E000024601470043CF4FA01E095F0953196D9
:10012E00AF01689401C0E894F0F8FA0148D2E8876C
:10013E00F987FA01EF70F070EE83FF83AE81BF8115
:10014E00EAE04BD23CD20E2F1885143608F5A12FBB
:10015E001BD13E2F1A3060F026D1F0FE02C0E0E136
:10016E0001C0E2E1EC931FD1E32FE295EF7009C0DD
:10017E0020D1A2E1A08317D1F0FE02C0E0E101C0C0
:10018E00E2E1EC9310D1E32FEF70EC9312D10083E8
:10019E0038D22A96FF900895EFEFE8BBE7BBE0E078
:1001AE00E5BBE4BBE2BBEFEFE1BBE0E0E3BFE2BFE8
:1001BE00EFBDEEBDEDBDECBDE7BDE6BDEBBDEABDF1
:1001CE00E9BDE8BDE2BDE5E0E5BDE0E0E4BDE3BDCF
:1001DE00E5BFE0E4E9BFE0E0EAB9E0E8E8B9E0E075
:1001EE00E0BFE6B9EDB9E6BF06D1E0EFEA93ADE6C2
:1001FE00B1E051D14E2E7894E2E1E0936901E093A3
:10020E006A01EFE0E0936B0140926C01689420F874
:10021E00E1E04E16E0F000E010E0E42DD801BED093
:10022E00AE17BF07A0F4C9D0A081A83221F4C5D063
:10023E00DF015AD03F01E1EFF8EDE615F70509F0C1
:10024E0062DFA0EDB7E0CDD00F5F1F4FE6CFE0CF5E
:10025E00FFCFBA93AA931A93CED0E03011F4E0E018
:10026E0090C0E981FA81309789F0F894A5E509D11B
:10027E00789410E0F894A9D0ED91A983BA83AE2FAB
:10028E0000D178941F5F1830A8F304C0F894ACEC3A
:10029E00F8D07894E1E075C0BA93AA93ADD1AC8151
:1002AE00BD81D7DFE03011F4E0E01BC0F894AEEB77
:1002BE00E8D0789410E020E631E0F8943F932F9345
:1002CE002F5F3F4FD9D0AF91BF91EC9378941F5FC2
:1002DE00193098F3E0E6F1E0FA93EA93A9E04AD1F7
:1002EE0077D191D126960895BA93AA931A936DD089
:1002FE00B0DFE03019F4E1EFF8ED43C069D0A83279
:10030E0039F4E0916401E295EF70E695E3701E2FEB
:10031E00F894A4E4B6D078945BD0A03119F4A6E298
:10032E00B2E05FD055D0A83231F4E12FACE3B0E0AB
:10033E0052D05DD156D049D0AFDFE03019F4E1EFA5
:10034E00F8ED1FC0F89457D0789442D0A03159F4EC
:10035E00F0916101E0E0DF01E09160011FD0EA2B36
:10036E00FB2B26D10EC034D0A83259F4E12FA4E4D1
:10037E00B0E031D038D1A0916001B0916101EA2393
:10038E00FB23188123960895AA93A991EE27AA50CC
:10039E0012F0E05FFCCFA65FEA0F0895F0E008953B
:1003AE00E759FE4F0895E22F2F5FF8DFF9DFDF01E7
:1003BE000895E22F2F5FF2DFF3CFA9E0A09FF001A7
:1003CE00A19FF00DE359FE4F0895A981BA810895BA
:1003DE00FCDFAC910895E2DFEE0FFF1FEA0FFB1F6B
:1003EE000895109639F080ED97E00197F1F7A895F2
:1003FE001197C9F70895EE2797988F9A80EC93E09E
:10040E000197F1F78F9885E28A95F1F7879B08950A
:10041E008BEC8A95F1F7879BE1E08CE093E00197F6
:10042E00F1F708958F9A85E08A95F1F78F988DE10F
:10043E008A95F1F7889487990894E79585ED8A95C2
:10044E00F1F70895E8948F9A85E08A95F1F770FD9B
:10045E008F9883E28A95F1F7879903C070FF03C0E6
:10046E00089570FF089588EC8A95F1F78F988DE0C6
:10047E008A95F1F76894089568E0D4DF6A95E9F7F4
:10048E0008957A2F68E0EE27DDDF26F477956A95DA
:10049E00D9F7E39508954F935F9311244427012CC8
:1004AE001124A9DFEE2301F1AF93A881EADFAF910A
:1004BE0051E0501598F4B6DFE7FD08C0B3DFE7FD55
:1004CE0006C03FD0892319F4152E01C0ABDF39D0F9
:1004DE00892370E009F071E0B5DF1EC0A3DFE7FFEE
:1004EE000BC0A0DFE7FF05C0E42F5F914F9121966F
:1004FE000895689437D0EFCF95DFE7FF01C003C0B2
:10050E00501531F0152EE8942DD077279BDF04C0BF
:10051E00689428D071E096DF5395513454F282DFFF
:10052E00EE1FEE1FE1701896EC931897439511206D
:10053E00D9F259E0EC911996EC9318975A95D1F798
:10054E00AECFE52FEA956E2FE695E695E695FF2759
:10055E00EA0FFB1F808191E0677019F0990F6A9581
:10056E00FCCF0895EEDF1EF09095892301C0892BF4
:10057E0080830895EE27AA2389F08A2F68E1A88147
:10058E00B98198E0FD917F2F7E27779508F4E627B5
:10059E00E795F6959A95B9F78A9599F72296089563
:1005AE00EE230E2EEA2F19F0EE0F0A94E9F70895B6
:1005BE00EE0FFF1FEE0FFF1FEE0FFF1F0895F695B4
:1005CE00E795F695E795F695E795F695E7950895EF
:1005DE00EE23E1E009F0EE2708956E2F6A9FF001F9
:1005EE006B9FF00D08950590F491E02D0895A5915F
:1005FE00B49108955A934A933A932A931A930A936D
:10060E0008955D814C813B812A811981088108956D
:00000001FF
