:0E0000003CC0FECFFDCFFCCFBCC0FACFF9CF85
:10000E00F8CF63C0F6CFF5CFF4CFF3CFF2CFF1CF69
:10001E00F0CFEFCFEECFEDCF286F584A0F8A886E14
:10002E00080A0C89B849989CDF1EFFCD99FEFB008B
:10003E00020408016400C80090012003F8FFFCFFD1
:10004E00FEFFFFFF000000000000000001002D4E2B
:10005E00414E00494E4600000100020052000500CC
:10006E0005005400010076015A000000F894EE27B6
:10007E00ECBBF1E0FBBFEBBFE5BFF8E1F1BDE1BDCD
:10008E008DE0A2E0BB27ED938A95E9F780E094E03E
:10009E00A0E6ED930197E9F7E6E6F0E085919591FC
:1000AE00009761F0A591B59105901590BF01F001F3
:1000BE0005900D920197E1F7FB01F0CFEFE5EDBF53
:1000CE00E4E0EEBFC0E6D1E04EC10A921A92FA9277
:1000DE006A937A938A939A93AA93BA93EA93FA932A
:1000EE00EFB7EA93E1E0E91571F5882059F49B9991
:1000FE0002C0E1E08E2E9A9904C09924AC986894BF
:10010E0022F820C0E1E0E81571F49B9903C0E2E00B
:10011E008E2E62D2999902C062D265D2989902C08F
:10012E005ED265D20FC0E2E0E81561F49B9902C081
:10013E00882452D2999902C05ED255D2989902C0A3
:10014E005AD255D209C0992039F49A9905C0E1E0E6
:10015E009E2EAC9A689421F8E991EFBFF991E9913E
:10016E00B991A9919991899179916991F990199083
:10017E00099018950A92AA93EA93FA93EFB7EA9325
:10018E00E2B3E073E2BB3BD23DD2E0813ED2EA5D08
:10019E00FF4F049008BA20FE03C0E2E0E51509F017
:1001AE0001C0C398E2B3AE2F2AD2E25CFF4FE491B6
:1001BE00EA2BE2BB5394E3E0E51508F45524E991EC
:1001CE00EFBFF991E991A99109901895FF92AA9321
:1001DE0095D3FF2400E0E89420F8EA81E03071F432
:1001EE00A1E0B0E062D3EE2312F46894F0F80FD2DF
:1001FE00A6E1A083F4D1DF0144D11E2FAA81A13044
:10020E0071F4A3E0B0E051D3EE2312F46894F0F849
:10021E00FED1A5E1A083EFD1DF0133D11E2F1A301D
:10022E00B8F0F5D1DF01F0FE02C0E0E101C0E2E17D
:10023E00EC93EDD1BF01A12FEAE01BD3DB01EC93D0
:10024E00E6D1BF01A12FEAE022D3DB01EC930DC072
:10025E00DED1A2E1A083DBD1DF01F0FE02C0E0E13E
:10026E0001C0E2E1EC93D3D110834FD32396FF90DC
:10027E000895FF9224973ED320E0A301002460143A
:10028E0070043CF4FA01E095F0953196AF01689454
:10029E0001C0E894F0F8FA01D8D2E887F987FA019C
:1002AE00EF70F070EE83FF83AE81BF81EAE0DBD2A8
:1002BE00CCD20E2F1885143688F5A12F83D13E2F60
:1002CE00A12EBB24053018F0F50131965F01F0FE2A
:1002DE0005C0E0E0F0E0EA19FB095F01689420F840
:1002EE001A3060F098D1F0FE02C0E0E101C0E2E108
:1002FE00EC9391D1E32FE295EF7009C092D1A2E178
:10030E00A08389D1F0FE02C0E0E101C0E2E1EC93EE
:10031E0082D1E32FEF70EC9384D10083F2D22A9630
:10032E00FF900895E1E0E915C1F423FE04C063D106
:10033E00EA15FB050CF003C0AD98E89423F8A0E095
:10034E0023FCA1E0A03021F44AD1AE16BF060CF07A
:10035E0003C0AD9A689423F805C0992019F4AD989E
:10036E00E89423F80895EFEFE8BBE7BBE5BBE4BBE9
:10037E00E0E0E2BBEFEFE1BBE0E0E3BFE2BFEFBDE9
:10038E00E3E0EEBDE0E0EDBDECBDE7BDE6BDEBBDEF
:10039E00EABDE9BDE8BDE2BDE5E0E5BDE0E0E4BDF6
:1003AE00E3BDE5BFE4E4E9BFE0E0EAB9E0E8E8B9BF
:1003BE00E0E0E0BFE6B9EDB9E6BFAC98AD9869D123
:1003CE00E0EFEA93ADE6B1E0B4D14E2E78942DD1A4
:1003DE00EFE0E0936B0140926C01E1E04E1678F095
:1003EE0000E010E028D158F42CD1A081A83221F4DD
:1003FE0028D1DF0198D03F010F5F1F4FF3CF882028
:10040E00A1F5E1E04E16B0F000E010E014D190F44A
:10041E0018D1A081A83221F414D1DF0184D03F017C
:10042E00E1EFF8EDE615F70511F023DF7BDF0F5F47
:10043E001F4FECCF21FE09C0E89420F8F6D0E0E083
:10044E00E0936B01E3E105D121F822FE0DC0E894A3
:10045E0020F8E2E1E0936901E0E0E0936A01EFE069
:10046E00E0936B01F6D022F80AC0E1E0E81511F432
:10047E00A0E004C0E2E0E81511F4A1E0A7DEBFCFD2
:10048E00FFCFEED0E991F99130971AF4E095F095FF
:10049E0031960895E5D01A93FCD0E03011F4E0E0E7
:1004AE008EC0E981FA81309789F0F894A5E537D1AD
:1004BE00789410E0F894D7D0ED91A983BA83AE2F3B
:1004CE002ED178941F5F1830A8F304C0F894ACECCA
:1004DE0026D17894E1E073C0C3D00ED2AC81BD8139
:1004EE00D9DFE03011F4E0E01BC0F894AEEB17D189
:1004FE00789410E020E631E0F8943F932F932F5F2D
:10050E003F4F08D1AF91BF91EC9378941F5F193094
:10051E0098F3E0E6F1E0FA93EA93A9E079D19ED15F
:10052E00F2D1269608959CD01A939DD0B3DFE03079
:10053E0019F4E1EFF8ED43C099D0A83239F4E09107
:10054E006401E295EF70E695E3701E2FF894A4E433
:10055E00E6D078948BD0A03119F4A6E2B2E08FD019
:10056E0085D0A83231F4E12FA2E4B0E082D096D14A
:10057E0086D079D0B1DFE03019F4E1EFF8ED1FC08D
:10058E00F89487D0789472D0A03159F4F09161012B
:10059E00E0E0DF01E091600138D0EA2BFB2B4ED179
:1005AE000EC064D0A83259F4E12FAAE4B0E061D0B5
:1005BE0071D1A0916001B0916101EA23FB231881F2
:1005CE0023960895AA93A991EE27AA5012F0E05F00
:1005DE00FCCFA65FEA0F0895A4E6B0E050C0A0E0FD
:1005EE00B0E05FD1089531976CD13196F5CF319649
:1005FE0068D13197F1CFA2E0B0E053D10895E52D47
:10060E00F0E00895E759FE4F0895F0E00895E02FC9
:10061E000F5FFBDFF7CFE22F2F5FF7DFF3DFDF0197
:10062E000895E22F2F5FF1DFEDCFE2E1E093690154
:10063E00E0936A010895E42DD801E7DFAE17BF07F6
:10064E000895A9E0A09FF001A19FF00DE359FE4F80
:10065E000895E0936C01A4ECB9E011D0E8940895EC
:10066E00BA93AA930895A981BA810895FCDFAC913B
:10067E000895CBDFEE0FFF1FEA0FFB1F08951096B4
:10068E0039F080ED97E00197F1F7A8951197C9F72A
:10069E000895EE2797988F9A80EC93E00197F1F7E3
:1006AE008F9885E28A95F1F7879B08958BEC8A9552
:1006BE00F1F7879BE1E08CE093E00197F1F7089565
:1006CE008F9A85E08A95F1F78F988DE18A95F1F7EB
:1006DE00889487990894E79585ED8A95F1F70895A2
:1006EE00E8948F9A85E08A95F1F770FD8F9883E2F2
:1006FE008A95F1F7879903C070FF03C0089570FFC4
:10070E00089588EC8A95F1F78F988DE08A95F1F728
:10071E006894089568E0D4DF6A95E9F708957A2F12
:10072E0068E0EE27DDDF26F477956A95D9F7E39535
:10073E0008954F935F9311244427012C1124A9DFB0
:10074E00EE2301F1AF93A881EADFAF9151E050158E
:10075E0098F4B6DFE7FD08C0B3DFE7FD06C03FD073
:10076E00892319F4152E01C0ABDF39D0892370E02F
:10077E0009F071E0B5DF1EC0A3DFE7FF0BC0A0DFFD
:10078E00E7FF05C0E42F5F914F912196089568947D
:10079E0037D0EFCF95DFE7FF01C003C0501531F022
:1007AE00152EE8942DD077279BDF04C0689428D0AF
:1007BE0071E096DF5395513454F282DFEE1FEE1F37
:1007CE00E1701896EC93189743951120D9F259E0E1
:1007DE00EC911996EC9318975A95D1F7AECFE52F69
:1007EE00EA956E2FE695E695E695FF27EA0FFB1F35
:1007FE00808191E0677019F0990F6A95FCCF08958A
:10080E00EEDF1EF09095892301C0892B8083089519
:10081E00EE27AA2389F08A2F68E1A881B98198E092
:10082E00FD917F2F7E27779508F4E627E795F695BD
:10083E009A95B9F78A9599F722960895EE0FFF1FAC
:10084E00EE0FFF1FEE0FFF1F0895F695E795F69535
:10085E00E795F695E795F695E7950895EE23E1E091
:10086E0009F0EE2708956E2F6A9FF0016B9FF00D31
:10087E000895002498E0AA0F001C0E1A10F40E0E14
:10088E0001C0A1609A95B9F7EA2FA02D0895F1DF66
:10089E00EA2F08950590F491E02D0895A591B49155
:1008AE000895119602D0FE2F1197E199FECFFF9376
:1008BE00FFB7F894AEBBBFBBE09AEDB3FFBFFF919D
:1008CE00089507D01196EF93EF2F03D0EF91119764
:1008DE000895E19B02C0A895FCCF9FB7F894AEBBDC
:1008EE00BFBBE09A8DB3E81719F0EDBBE29AE19A1F
:1008FE009FBF08955A934A933A932A931A930A9351
:10090E0008955D814C813B812A811981088108956A
:00000001FF
